:08000000803102288731FC2F3A
:100F1E007108F3007008F200730DF30CF20C730DF0
:100F2E00F30CF20C7208260091001308CF399300CF
:100F3E007008F2000330F235FF3E031DA22F72350A
:100F4E00303913049300080021000C110F302600D5
:100F5E0093000F3020009C0031309B001C15F501D2
:100F6E00F6017608803AF40084307402031DC12F16
:100F7E00003075020318DD2F7608F1007508F000B9
:100F8E0087318F2787310330F400F40BCC2F0130DB
:100F9E00F5070030F63D7608803AF400843074028E
:100FAE00031DDB2F00307502031CC32FFF30F7002B
:100FBE000330F8007808803AF40080307402031D84
:100FCE00EA2F01307702031CB62F7808F10077085C
:100FDE00F00087318F2787310330F400F40BF52FA3
:100FEE00FF30F707FF30F83DE12FF9012000873180
:020FFE00AB2F17
:020000040001F9
:04000E00E4FFFFFF0D
:00000001FF
